:020000040800F2
:10000000000001209D180008C9070008CB07000860
:10001000CD070008CF070008D10700080000000046
:10002000000000000000000000000000D3070008EE
:10003000D507000800000000D7070008D90700080E
:10004000ED180008ED180008ED180008ED1800087C
:10005000ED180008ED180008ED180008ED1800086C
:10006000ED180008ED180008ED180008ED1800085C
:10007000ED180008ED180008ED180008ED1800084C
:10008000ED180008ED180008ED1800080000000049
:10009000000000000000000000000000ED18000853
:1000A000ED180008ED180008ED180008ED1800081C
:1000B000ED180008ED180008ED180008ED1800080C
:1000C000ED180008ED180008ED180008ED180008FC
:1000D000ED180008ED180008ED18000800000000F9
:1000E000ED180008ED180008ED18000800000000E9
:1000F000000000000000000000000000ED180008F3
:1001000000000000ED180008ED180008ED180008C8
:1001100000000000000000000000000000000000DF
:10012000ED180008ED180008ED180008ED1800089B
:10013000ED180008000000000000000000000000B2
:10014000000000000000000000000000ED180008A2
:10015000ED180008ED180008ED180008ED1800086B
:10016000ED180008ED180008000000000000000075
:10017000000000000000000000000000000000007F
:1001800000000000ED180008000000000000000062
:04019000ED1800085E
:1001A00010B5054C237833B9044B13B10448AFF3B1
:1001B00000800123237010BD7000002000000000AB
:1001C0006C28000808B5034B1BB103490348AFF383
:1001D000008008BD00000000740000206C280008AA
:1001E000034613F8012B002AFBD1181A0138704777
:1001F00001F0FF01102A2BDB10F0070F08D010F8D8
:10020000013B013A8B422DD010F0070F42B3F6D1DB
:10021000F0B441EA012141EA014122F007047FF0F4
:1002200000070023F0E80256083C85EA010586EA4B
:10023000010685FA47F5A3FA87F586FA47F6A5FA87
:1002400087F68EB9EED1F0BC01F0FF0102F0070293
:1002500032B110F8013B013A83EA010313B1F8D13E
:100260000020704701387047002D06BF354603381F
:10027000073815F0010F07D1013015F4807F02BF58
:10028000013015F4C03F0130F0BC0138704700BFA9
:1002900053B94AB9002908BF00281CBF4FF0FF31ED
:1002A0004FF0FF3000F074B9ADF1080C6DE904CEE9
:1002B00000F006F8DDF804E0DDE9022304B0704741
:1002C0002DE9F047089D04468E46002B4DD18A4209
:1002D000944669D9B2FA82F252B101FA02F3C2F13C
:1002E000200120FA01F10CFA02FC41EA030E9440CD
:1002F0004FEA1C48210CBEFBF8F61FFA8CF708FBEE
:1003000016E341EA034306FB07F199420AD91CEBC5
:10031000030306F1FF3080F01F81994240F21C81F7
:10032000023E63445B1AA4B2B3FBF8F008FB10333F
:1003300044EA034400FB07F7A7420AD91CEB040474
:1003400000F1FF3380F00A81A74240F20781644444
:10035000023840EA0640E41B00261DB1D4400023C9
:10036000C5E900433146BDE8F0878B4209D9002D2D
:1003700000F0EF800026C5E9000130463146BDE8B7
:10038000F087B3FA83F6002E4AD18B4202D3824221
:1003900000F2F980841A61EB030301209E46002DD0
:1003A000E0D0C5E9004EDDE702B9FFDEB2FA82F225
:1003B000002A40F09280A1EB0C014FEA1C471FFA83
:1003C0008CFE0126200CB1FBF7F307FB131140EA6A
:1003D00001410EFB03F0884208D91CEB010103F137
:1003E000FF3802D2884200F2CB804346091AA4B2F9
:1003F000B1FBF7F007FB101144EA01440EFB00FECD
:10040000A64508D91CEB040400F1FF3102D2A64531
:1004100000F2BB800846A4EB0E0440EA03409CE7D0
:10042000C6F12007B34022FA07FC4CEA030C20FA7D
:1004300007F401FA06F31C43F9404FEA1C4900FA9D
:1004400006F3B1FBF9F8200C1FFA8CFE09FB18111A
:1004500040EA014108FB0EF0884202FA06F20BD98D
:100460001CEB010108F1FF3A80F08880884240F2DD
:100470008580A8F102086144091AA4B2B1FBF9F021
:1004800009FB101144EA014100FB0EFE8E4508D91C
:100490001CEB010100F1FF346CD28E456AD90238A1
:1004A000614440EA0840A0FB0294A1EB0E01A14286
:1004B000C846A64656D353D05DB1B3EB080261EBF4
:1004C0000E0101FA07F722FA06F3F1401F43C5E9CE
:1004D000007100263146BDE8F087C2F12003D84004
:1004E0000CFA02FC21FA03F3914001434FEA1C4746
:1004F0001FFA8CFEB3FBF7F007FB10360B0C43EA38
:10050000064300FB0EF69E4204FA02F408D91CEBE7
:10051000030300F1FF382FD29E422DD902386344E5
:100520009B1B89B2B3FBF7F607FB163341EA034185
:1005300006FB0EF38B4208D91CEB010106F1FF38D4
:1005400016D28B4214D9023E6144C91A46EA0046CB
:1005500038E72E46284605E70646E3E61846F8E65D
:100560004B45A9D2B9EB020864EB0C0E0138A3E7A6
:100570004646EAE7204694E74046D1E7D0467BE787
:10058000023B614432E7304609E76444023842E7FF
:10059000704700BF30B589B00024039404940594DB
:1005A000069407940094194B1A6B42F001021A63E7
:1005B0001A6B02F001020092009A01941A6B42F049
:1005C00002021A631A6B02F002020192019A02946B
:1005D0001A6B42F004021A631B6B03F004030293CC
:1005E000029B0B4D22464FF40051284600F09EFE20
:1005F0004FF400530393012304930594069403A935
:10060000284600F0B3FD09B030BD00BF00380240FD
:100610000008024072B6FEE708B50948094B0360BE
:10062000002343607F228260FF22C2600361436136
:10063000836100F084F900B908BDFFF7EBFF00BF4C
:100640008C0000200028004008B50A480A4B0360CF
:10065000002343608360C36003614361836103627D
:10066000436283620A23C36200F0D2FF00B908BD6F
:10067000FFF7D0FFAC0000200030014000B599B07A
:10068000302200210DEB020001F056F90023079300
:10069000089309930A930B9302930393049305938E
:1006A000069300931F4A116C41F080511164126C43
:1006B00002F080520092009A01931B490A6822F4CA
:1006C000404242F400420A600A6802F44042019249
:1006D000019A0A220C9201220F921021109111927C
:1006E00012930CA800F08EF9B0B90F2307930021E4
:1006F000089109910A910B9107A800F0D1FB68B904
:10070000022302934FF40073059302A800F078FCD3
:1007100030B919B05DF804FBFFF77CFFFFF77AFFF3
:10072000FFF778FF003802400070004010B58EB02F
:1007300000F090FEFFF7A2FFFFF72CFFFFF76CFF22
:10074000FFF782FF1C4B0DF1040C0FCBACE8070048
:100750008CF80030252200210DF1110001F0ECF899
:10076000164C01224FF40051204600F0DFFD4FF4FB
:100770007A7000F09BFE00224FF40051204600F0FA
:10078000D5FD4FF47A7000F091FE0D4801F0DCF8D1
:1007900001A8FFF725FD642382B201A9094800F0F2
:1007A00096FF4FF40051054800F0C6FD4FF47A70F3
:1007B00000F07CFEE9E700BF842800080008024042
:1007C000B8280008AC000020FEE7FEE7FEE7FEE7E1
:1007D000FEE770477047704708B500F055FE08BD4A
:1007E00082B0002100910B4B5A6C42F480425A6453
:1007F0005A6C02F480420092009A01911A6C42F005
:1008000080521A641B6C03F080530193019B02B069
:10081000704700BF003802400268044B9A4200D083
:100820007047034B0122C3F83C2EF9E70028004033
:1008300000004742F0B589B0002303930493059369
:100840000693079302681F4B9A4201D009B0F0BD8E
:100850000024009403F584335A6C42F480525A64A5
:100860005A6C02F480520092009A01941A6B42F082
:1008700001021A631A6B02F001020192019A0294BA
:100880001A6B42F002021A631B6B03F0020302931D
:10089000029B4FF400430393022704970326069616
:1008A0000525079503A9084800F060FC3823039349
:1008B000049705940696079503A9044800F056FC92
:1008C000C4E700BF003001400000024000040240C5
:1008D00038B504460268D36823F0A003D36000F063
:1008E000DFFD05462368DB6813F0200F07D100F019
:1008F000D7FD401BB0F57A7FF4D9032000E000203B
:1009000038BD38B50368DA6812F0400F01D0002016
:1009100038BD04464FF0FF32DA6000F0C1FD0546F5
:100920002368DB6813F0400F07D100F0B9FD431BCB
:10093000B3F57A7FF4D90320EAE70020E8E738B579
:1009400000285CD00446437F002B41D0022363770C
:100950002368CA225A62236853225A622046FFF74C
:10096000D0FF0546002837D12268936823F4E003BE
:1009700023F04003936021688A6863682069034319
:100980006069034313438B602368E2681A6122683D
:100990001369A16843EA014313612268D36823F015
:1009A0008003D36023689B6813F0200F1BD022685C
:1009B000136C23F4802313642268136CA1690B4326
:1009C00013642368FF225A6201236377284638BDE7
:1009D0000377FFF721FFB9E72368FF225A62042358
:1009E00063770125F2E72046FFF772FF0028DED08B
:1009F0002368FF225A62042363770125E6E7012575
:100A0000E4E70000002800F0E08170B582B0044601
:100A1000036813F0010F3BD09F4B9B6803F00C035E
:100A2000042B2CD09C4B9B6803F00C03082B21D08B
:100A30006368B3F5803F4FD0B3F5A02F52D0964BEB
:100A40001A6822F480321A601A6822F480221A602E
:100A50006368002B50D000F023FD05468E4B1B68C9
:100A600013F4003F14D100F01BFD401B6428F5D99E
:100A70000320B1E1884B5B6813F4800FD8D0864B1C
:100A80001B6813F4003F03D06368002B00F09F81C4
:100A9000236813F0020F54D07F4B9B6813F00C0FA8
:100AA0003ED07D4B9B6803F00C03082B33D0E368EA
:100AB000002B68D0794B01221A6000F0F1FC05464A
:100AC000754B1B6813F0020F54D100F0E9FC401B7A
:100AD0000228F5D903207FE16F4A136843F480337D
:100AE0001360B5E76C4B1A6842F480221A601A68EA
:100AF00042F480321A60ABE700F0D2FC0546664B48
:100B00001B6813F4003FC3D000F0CAFC401B6428EC
:100B1000F5D9032060E1604B5B6813F4800FC6D108
:100B20005D4B1B6813F0020F03D0E368012B40F00C
:100B30005081594A136823F0F803216943EAC1033D
:100B40001360236813F0080F42D063696BB3534BF3
:100B50000122C3F8802E00F0A3FC05464E4B5B6FCC
:100B600013F0020F34D100F09BFC401B0228F5D992
:100B7000032031E1484A136823F0F803216943EA6E
:100B8000C1031360DDE7454B00221A6000F088FCCA
:100B90000546414B1B6813F0020FD2D000F080FCD9
:100BA000401B0228F5D9032016E13C4B0022C3F874
:100BB000802E00F075FC0546374B5B6F13F0020F7B
:100BC00006D000F06DFC401B0228F5D9032003E19C
:100BD000236813F0040F77D02F4B1B6C13F0805F4A
:100BE00033D1002301932C4B1A6C42F080521A64CB
:100BF0001B6C03F080530193019B0125284B1B685C
:100C000013F4807F23D0A368012B34D0052B38D078
:100C1000214B1A6F22F001021A671A6F22F00402A8
:100C20001A67A368002B3DD000F03AFC06461A4B29
:100C30001B6F13F0020F46D100F032FC801B41F213
:100C400088339842F3D90320C6E00025D6E7144A3A
:100C5000136843F48073136000F022FC0646104BC7
:100C60001B6813F4807FCED100F01AFC801B022891
:100C7000F5D90320B0E0084A136F43F0010313676E
:100C8000CFE7054B1A6F42F004021A671A6F42F061
:100C900001021A67C5E700BF003802400000474262
:100CA0000070004000F0FCFB0646524B1B6F13F037
:100CB000020F08D000F0F4FB801B41F28833984209
:100CC000F3D9032088E0EDB9A369002B00F08380FD
:100CD000484A926802F00C02082A51D0022B17D021
:100CE000454B00221A6600F0DBFB0446414B1B68B3
:100CF00013F0007F42D000F0D3FB001B0228F5D98F
:100D0000032069E03B4A136C23F080531364DBE754
:100D1000394B00221A6600F0C3FB0546354B1B68B1
:100D200013F0007F06D000F0BBFB401B0228F5D972
:100D3000032051E0E369226A1343626A43EA8213A3
:100D4000A26A5208013A43EA0243E26A43EA0263B2
:100D5000284A5360284B01221A6600F0A1FB044682
:100D6000244B1B6813F0007F06D100F099FB001B99
:100D70000228F5D903202FE000202DE000202BE0F1
:100D8000012B2BD01B4B5B6803F48001E26991427D
:100D900026D103F03F02216A8A4223D1616A47F6D5
:100DA000C0721A40B2EB811F1ED103F44031A26A17
:100DB0005208013AB1EB024F18D103F07063E26AB6
:100DC000B3EB026F14D1002006E001207047012030
:100DD00002E0012000E0002002B070BD0120FBE72E
:100DE0000120F9E70120F7E70120F5E70120F3E70B
:100DF0000120F1E7003802400000474208B5254BCA
:100E00009B6803F00C03042B3FD0082B3FD1214BF0
:100E10005A6802F03F025B6813F4800F12D01D4B3A
:100E20005968C1F388111C480023A1FB0001FFF79A
:100E30002FFA184B5B68C3F3014301335B00B0FB2F
:100E4000F3F025E0134B5968C1F3881C4FEA4C11AD
:100E5000B1EB0C006EEB0E0E4FEA8E1343EA90637B
:100E60008101091A63EB0E03DB0043EA5173C900E9
:100E700011EB0C0C43F10003990200234FEA8C2084
:100E800041EA9C51FFF704FAD3E7034800E0034826
:100E900008BD00BF0038024040787D010024F40006
:100EA000002800F09B8070B50D4604464F4B1B6830
:100EB00003F007038B4208D2CBB24C4A137013687D
:100EC00003F007038B4240F08B80236813F0020F7E
:100ED00017D013F0040F04D0454A936843F4E0534D
:100EE0009360236813F0080F04D0414A936843F4D9
:100EF000604393603E4A936823F0F003A1680B437C
:100F00009360236813F0010F32D06368012B21D066
:100F10009A1E012A25D9364A126812F0020F61D0B2
:100F200033498A6822F0030213438B6000F0B8FA59
:100F300006462F4B9B6803F00C036268B3EB820FED
:100F400016D000F0ADFA801B41F288339842F0D9F8
:100F5000032042E0264A126812F4003FE0D101204B
:100F60003BE0234A126812F0007FD9D1012034E01F
:100F70001E4B1B6803F00703AB4207D9EAB21B4BB9
:100F80001A701B6803F00703AB422DD1236813F0DE
:100F9000040F06D0164A936823F4E053E1680B432C
:100FA0009360236813F0080F07D0114A936823F465
:100FB0006043216943EAC1039360FFF71FFF0C4BB5
:100FC0009B68C3F303130B4AD35CD8400A4B1860E9
:100FD0000A4B186800F018FA002070BD0120704715
:100FE0000120FAE70120F8E70120F6E7003C024083
:100FF00000380240D8280008080000200400002023
:1010000030B583B00446036813F0050F0ED1236892
:1010100013F0020F36D1236813F0080F00F09B8005
:10102000227C4E4BC3F8E021002095E04C4B00227F
:101030009A6600F035FA05464A4B1B6813F0006FBC
:1010400006D000F02DFA431B022BF5D9032083E0D4
:101050006268A3681B0743EA8213424AC2F88430DD
:101060003F4B01229A6600F01BFA05463D4B1B6878
:1010700013F0006FCBD100F013FA401B0228F5D912
:10108000032069E000230193364B1A6C42F0805232
:101090001A641B6C03F080530193019B324A13685E
:1010A00043F48073136000F0FBF905462E4B1B6878
:1010B00013F4807F06D100F0F3F9431B022BF5D91E
:1010C000032049E0274B1B6F13F4407314D0E268F0
:1010D00002F440729A420FD0224B1A6F22F44072EF
:1010E0001F490120C1F8400E0020C1F8400E1A67C8
:1010F0001B6F13F0010F12D1E36803F44072B2F5D5
:10110000407F1DD0174A936823F4F8139360154964
:101110000B6FE268C2F30B0213430B677BE700F02F
:10112000BFF905460F4B1B6F13F0020FE4D100F01F
:10113000B7F9401B41F288339842F3D903200BE002
:1011400008498A6822F4F81223F0704323F44073AC
:1011500013438B60DBE7002003B030BD0010474233
:1011600000004742003802400070004000230F2B6F
:1011700000F2D28070B582B060E085685E00032422
:10118000B44025EA0405CC68B4402C43846045682B
:1011900025EA02054C68C4F300129A402A434260D3
:1011A0005AE0DC08083450F8246003F00702950088
:1011B0000F22AA4026EA020E0A69AA4042EA0E025B
:1011C00040F824205CE0042200E0002202FA0EF243
:1011D0002A430234514D45F82420514A14686FEADD
:1011E0000C0224EA0C054E6816F4803F01D04CEA4C
:1011F00004054B4C2560646802EA04054E6816F449
:10120000003F01D04CEA0405454C6560A46802EA41
:1012100004054E6816F4801F01D04CEA0405404CCA
:10122000A560E46822404D6815F4001F01D04CEA27
:1012300004023B4CE26001330F2B6BD801229A4031
:101240000C6804EA020C32EA0404F4D14C6804F09D
:101250000304013C012C90D94A6802F00302032ADE
:1012600009D0C4685D000322AA4024EA02048A6807
:10127000AA402243C2604A6802F00302022A90D0C8
:1012800004684FEA430E032202FA0EF224EA020433
:101290004A6802F0030202FA0EF2224302604A6830
:1012A00012F0805FC7D0002201921E4A546C44F4B1
:1012B00080445464526C02F480420192019A9C086A
:1012C000A51C164A52F8255003F003024FEA820E7D
:1012D0000F2202FA0EF225EA0205134A90423FF469
:1012E00074AF02F5806290420ED002F580629042A7
:1012F0000CD002F5806290420AD002F580629042E2
:101300003FF461AF072261E701225FE702225DE758
:1013100003225BE702B070BD704700BF0038014098
:10132000003C014000380240000002400AB18161E7
:101330007047090481617047436901EA030221EAA9
:10134000030141EA0241816170470000074AD36806
:1013500023F4E0631B041B0C000200F4E060034371
:1013600043F0BF6343F40033D360704700ED00E007
:1013700000B5194BDB68C3F30223C3F1070CBCF1C2
:10138000040F28BF4FF0040C03F1040EBEF1060F4A
:1013900018D9033B4FF0FF3E0EFA0CFC21EA0C017A
:1013A00099400EFA03F322EA0303194300280BDBEA
:1013B0000901C9B200F1604000F5614080F80013F6
:1013C0005DF804FB0023E5E700F00F000901C9B256
:1013D000024B1954F4E700BF00ED00E014ED00E00B
:1013E0000138B0F1807F0BD24FF0E0235861054AFD
:1013F000F02182F823100020986107221A617047BB
:101400000120704700ED00E010B504460E4B18783F
:101410004FF47A73B3FBF0F30C4A1068B0FBF3F0AF
:10142000FFF7DEFF68B90F2C01D901200AE0002286
:1014300021464FF0FF30FFF79BFF054B1C6000205B
:1014400000E0012010BD00BF0000002008000020C7
:101450000400002008B50B4B1A6842F400721A60B1
:101460001A6842F480621A601A6842F480721A6044
:101470000320FFF76BFF0020FFF7C6FFFFF7B0F96F
:10148000002008BD003C0240034A1168034B1B7852
:101490000B441360704700BF0401002000000020CF
:1014A000014B1868704700BF0401002038B504469E
:1014B000FFF7F6FF0546B4F1FF3F02D0044B1B785F
:1014C0001C44FFF7EDFF401BA042FAD338BD00BF1C
:1014D000000000202DE9F04782B0054688461746F7
:1014E0001E46FFF7DDFF0A9B1B1A03EB0609FFF7F9
:1014F000D7FF82462B4B1B68C3F3CB3309FB03F3A7
:1015000001932B689C6838EA04030CBF4FF0010C70
:101510004FF0000CBC4540D0B6F1FF3FF1D0FFF7D3
:10152000BFFFA0EB0A0048450AD2B9F1000F07D06F
:10153000019A02B14A46019B013B01939146E0E7C3
:101540002A68536823F0E00353606B68B3F5827F29
:101550000BD0AB6AB3F5005F14D0012385F851308E
:10156000002385F85030032018E0AB68B3F5004F36
:1015700002D0B3F5806FECD12A68136823F04003E2
:101580001360E6E72A68136823F4005313602A689F
:10159000136843F400531360DFE7002002B0BDE896
:1015A000F08700BF0800002010B584B00446164B39
:1015B0001868164BA3FB0030400D4FF47A7303FB01
:1015C00000F003906368B3F5827F0BD0039BBBB13F
:1015D000039B013B039323689B6813F0800FF5D1B5
:1015E00000200EE000920B46002280212046FFF7EB
:1015F00071FF30B1636D43F020036365032000E0A9
:10160000002004B010BD00BF08000020819F5E16BE
:1016100000285AD010B50446436A33B94368B3F57D
:10162000827F05D00023C36102E000230361436190
:101630000023A36294F85130002B40D0022384F899
:1016400051302268136823F040031360636803F489
:101650008273A26802F404421343E26802F4006257
:101660001343226902F002021343626902F001028D
:101670001343A26902F400721343E26902F03802D4
:101680001343226A02F080021343A26A02F400525A
:10169000216813430B60638B03F00403626A02F05A
:1016A0001002216813434B602268D36923F400635E
:1016B000D36100206065012384F8513010BD84F8A7
:1016C00050302046FFF7B6F8B8E7012070472DE903
:1016D000F04383B01D4690F85030012B00F0D180CC
:1016E000044688469146012380F85030FFF7D8FE23
:1016F000074694F85160F6B2012E40F0AF80B8F181
:10170000000F00F0AC80B9F1000F00F0A8800323B7
:1017100084F8513000236365C4F83080A4F8349015
:10172000A4F83690A363A387E38763642364A36864
:10173000B3F5004F1ED023681A6812F0400F03D192
:101740001A6842F040021A60E368B3F5006F1CD0DB
:10175000636813B1B9F1010F52D1226B236812787B
:101760001A73236B01332363E38E9BB2013B9BB25D
:10177000E38645E02268136823F040031360226883
:10178000136843F480431360D5E7636813B1B9F17C
:10179000010F16D1226B23681288DA60236B0233A3
:1017A0002363E38E9BB2013B9BB2E38609E0FFF724
:1017B00077FEC01BA84202D3B5F1FF3F59D1002DDF
:1017C00059D0E38E9BB2002B33D023689A6812F075
:1017D000020FECD0226B1288DA60236B0233236392
:1017E000E38E9BB2013B9BB2E386EAE7FFF758FE2C
:1017F000C01BA84202D3B5F1FF3F3ED1002D3ED021
:10180000E38E9BB2ABB123689A6812F0020FEDD061
:10181000226B12781A73236B01332363B4F836C03A
:101820001FFA8CFC0CF1FF3C1FFA8CFCA4F836C0AC
:10183000E6E73A4629462046FFF7B6FE08B12023E0
:101840006365A36833B901932368DA6801929B68E2
:101850000193019B636D13B9002600E0022601236A
:1018600084F85130002384F85030304603B0BDE88E
:10187000F0830326F3E70326F1E70326EFE70326C9
:10188000EDE70226F1E70000034AD2F8883043F47E
:101890007003C2F88830704700ED00E0DFF834D004
:1018A0000D480E490E4A002302E0D458C4500433B8
:1018B000C4188C42F9D30B4A0B4C002301E013608F
:1018C0000432A242FBD3FFF7DFFF00F011F8FEF76E
:1018D0002DFF704700000120000000207000002054
:1018E00090290008700000201C010020FEE7000085
:1018F00070B50D4D0D4C641BA4100026A64209D1F5
:101900000B4D0C4C00F0B2FF641BA4100026A64245
:1019100005D170BD55F8043B98470136EEE755F800
:10192000043B98470136F2E7882900088829000817
:10193000882900088C29000802440346934200D1FC
:10194000704703F8011BF9E70FB40A4B13B51C6885
:1019500024B1A36913B9204600F066F805AB049AD8
:10196000A1680193204600F083F902B0BDE8104061
:1019700004B070470C000020002310B50446C0E9F5
:101980000033C0E90433836081814366C28183618F
:10199000194608225C30FFF7CFFF054B6362054B09
:1019A000A362054BE362054B2462236310BD00BFB5
:1019B000192200083B220008732200089722000821
:1019C000014900F0AFB800BF7125000870B568226A
:1019D0004D1E55430E4605F1740100F0C5F804464E
:1019E00040B10021C0E900160C30A06005F168028A
:1019F000FFF7A2FF204670BD014800F0B3B800BF5A
:101A000009010020014800F0AEB800BF0901002024
:101A1000014800F0A7B800BF0A010020014800F00B
:101A2000A2B800BF0A01002010B50446FFF7F0FF7E
:101A3000A3691BB1BDE81040FFF7F0BFC4E9123342
:101A40002365134B134A1B68A262A34204BF012300
:101A5000A361204600F020F86060204600F01CF8EA
:101A6000A060204600F018F80022E06004216068C1
:101A7000FFF782FFA06801220921FFF77DFFE068E0
:101A800002221221FFF778FF0123A361D2E700BFF2
:101A9000E8280008C1190008F8B50746FFF7ACFFB1
:101AA0001E4B1E68B36913B93046FFF7BDFF4836B9
:101AB000D6E90134013B03D533680BB33668F7E749
:101AC000B4F90C50D5B9164BE36004F158006566C3
:101AD00000F047F8FFF796FFC4E90155C4E9045543
:101AE0002560A5610822294604F15C00FFF724FF68
:101AF000C4E90D55C4E912552046F8BD6834D9E74C
:101B000004213846FFF762FF044630600028D5D133
:101B1000FFF778FF0C233B60EEE700BFE8280008E2
:101B20000100FFFF2DE9F8430646884600F148040E
:101B30000027D4E90195B9F1010905D52468002CE5
:101B4000F7D13846BDE8F883AB89012B07D9B5F941
:101B50000E30013303D029463046C047074368356D
:101B6000E9E7704770477047F8B5CD1C25F00305CD
:101B700008350C2D38BF0C25002D064601DBA94287
:101B800003D90C2333600020F8BD00F0A5FD2149E6
:101B90000A6814469CB9204F3B6823B92146304659
:101BA00000F02AFB38602946304600F025FB431C34
:101BB00023D10C233360304600F094FDE3E7236823
:101BC0005B1B17D40B2B03D923601C44256004E056
:101BD0006368A2420CBF0B605360304600F082FD88
:101BE00004F10B00231D20F00700C21ACCD01B1AF1
:101BF000A350C9E722466468CCE7C41C24F0030460
:101C0000A042E3D0211A304600F0F6FA0130DDD1CF
:101C1000CFE700BF0C010020100100209368013BBA
:101C2000002B10B4936008DA9469A34201DB0A29FF
:101C300003D15DF8044B00F033BB1368581C1060EF
:101C4000197008465DF8044B7047F8B506460F4614
:101C50001446D518AC4201D1002007E014F8011B4E
:101C60003A463046FFF7DAFF431CF3D1F8BD0000D7
:101C70002DE9F04F0D469DB014469846064618B122
:101C800083690BB9FFF7D0FE894B9D421BD1756864
:101C90006B6ED90705D4AB899A0502D4A86DFFF7FE
:101CA00061FFAB891B0701D52B69EBB9294630468B
:101CB00000F05AFBC0B16B6EDC070ED54FF0FF3061
:101CC0001DB0BDE8F08F7B4B9D4201D1B568DFE7C9
:101CD000794B9D4208BFF568DAE7AB899805EDD4EA
:101CE000A86DFFF740FFE9E70023099320238DF853
:101CF0002930CDF80C803023DFF8C0818DF82A30F0
:101D00004FF0010923469A4613F8012B0AB1252A00
:101D1000F9D1BAEB040B0BD05B462246294630467C
:101D2000FFF793FF013000F0AA80099A5A44099204
:101D30009AF80030002B00F0A28000234FF0FF3211
:101D4000CDE905230AF1010A049307938DF8533076
:101D50001A935446052214F8011B5848FEF748FA16
:101D6000049AD8B9D10644BF20238DF85330130705
:101D700044BF2B238DF853309AF800302A2B15D00E
:101D8000079A544600204FF00A0C214611F8013BF7
:101D9000303B092B4ED9B0B1079214E0A0EB0803F9
:101DA00009FA03F313430493A246D2E7039B191DD8
:101DB0001B680391002BBBBF5B4242F002020793FA
:101DC0000793B8BF049223782E2B0CD163782A2B6B
:101DD00035D1039B1A1D1B680392002BB8BF4FF02F
:101DE000FF3302340593DFF8E4A021780322504644
:101DF000FEF7FEF940B14023A0EB0A0003FA00F021
:101E0000049B03430134049314F8011B2C488DF800
:101E100028100622FEF7ECF900283FD0294B1BBB07
:101E2000039B073323F0070308330393099B3B44C9
:101E3000099367E70CFB02320C460120A5E700235B
:101E40000134059319464FF00A0C204610F8012B77
:101E5000303A092A03D9002BC5D00591C3E70CFB02
:101E6000012104460123F0E703AB00932A46164BF9
:101E700004A93046AFF300800746781CD6D16B6EBC
:101E8000D90705D4AB899A0502D4A86DFFF76BFE7C
:101E9000AB895B063FF512AF099811E703AB0093DE
:101EA0002A46094B04A9304600F080F8E4E700BF59
:101EB0000C2900082C290008EC2800084C290008EF
:101EC00056290008000000004B1C00085229000899
:101ED0002DE9F047164699468A680B69DDF820809F
:101EE0009342B8BF1346336091F8432007460C462F
:101EF0000AB1013333602368990642BF3368023365
:101F00003360256815F0060506D104F1190AE36867
:101F100032689B1AAB4226DC94F84320131E2268D9
:101F200018BF012392062BD404F1430249463846D8
:101F3000C04701301ED02368E568326803F006030D
:101F4000042B08BFAD1AA36822690CBF25EAE5750A
:101F500000259342C4BF9B1AED1800261A34B542DF
:101F60001AD1002008E00123524649463846C047AE
:101F7000013003D14FF0FF30BDE8F0870135C6E7EF
:101F8000E1185A1C302081F84300224494F845108F
:101F900082F843100233C7E70123224649463846F8
:101FA000C0470130E6D00136D9E700002DE9FF47F0
:101FB0000F7E0C9D782F914680460C469A4601F183
:101FC000430207D8622F0AD8002F00F0D880582F7C
:101FD00000F0A38004F1420584F842703AE0A7F1D2
:101FE0006303152BF6D801A151F823F04520000812
:101FF00059200008D51F0008D51F0008D51F00086C
:10200000D51F000859200008D51F0008D51F00085B
:10201000D51F0008D51F0008652100088920000889
:1020200047210008D51F0008D51F00088721000898
:10203000D51F000889200008D51F0008D51F0008FB
:102040004F2100082B681A1D1B682A6004F1420505
:1020500084F842300123A3E020682968060601F1D4
:1020600004030AD50E682B60002E03DA2D23764276
:1020700084F843305E480A2319E00E682B6010F0A4
:10208000400F18BF36B2EFE72B682068191D296092
:10209000010601D51E6802E04606FBD51E8854489D
:1020A0006F2F0CBF08230A23002184F843106568B2
:1020B000A560002DA2BF216821F0040121600EB9A6
:1020C000002D4DD01546B6FBF3F103FB1167C75D3C
:1020D00005F8017D3746BB420E46F4D9082B0BD1DB
:1020E0002368DE0708D5236961689942DEBF302383
:1020F00005F8013C05F1FF35521B2261CDF800A027
:102100004B4603AA21464046FFF7E2FE01304CD180
:102110004FF0FF3004B0BDE8F087354881F84570D6
:102120002968236851F8046B29601D0614D5DF0760
:1021300044BF43F0200323601EB9236823F020032B
:1021400023601023B0E7236843F020032360782343
:10215000284884F84530E3E7590648BFB6B2E6E7B9
:102160001546BBE72B6826686169181D286035068F
:102170001B6801D5196002E07006FBD519800023A9
:1021800023611546BAE72B681A1D2A601D6862682C
:1021900000212846FEF72CF808B1401B60606368F8
:1021A0002361002384F84330A8E723692A4649467F
:1021B0004046D0470130ABD023689B0713D4E0687A
:1021C000039B9842B8BF1846A4E70123324649460C
:1021D0004046D04701309BD00135E36803995B1A34
:1021E000AB42F2DCEBE7002504F11906F5E700BF8E
:1021F0005D2900086E29000838B5064D0023044605
:1022000008462B6000F01CFB431C02D12B6803B175
:10221000236038BD1401002010B50C46B1F90E1032
:1022200000F0B2FA0028ABBF636DA3891B1823F43A
:102230008053ACBF6365A38110BD2DE9F0411F46FB
:102240008B89DB0505460C46164605D5B1F90E10FF
:102250000223002200F0C8F9A389B4F90E1023F478
:102260008053A38132463B462846BDE8F04100F04A
:1022700069B810B50C46B1F90E1000F0B5F9431C61
:10228000A38915BF606523F4805343F48053A38171
:1022900018BFA38110BDB1F90E1000F0D3B8000033
:1022A000F8B50E461446054618B183690BB9FFF719
:1022B000BBFB214B9C422BD16C68A369A360A38913
:1022C0001A072FD523696BB323692068C01A636985
:1022D000F6B28342374604DC2146284600F048F92E
:1022E00030BBA368013BA36023685A1C22601E70A8
:1022F00063690130834204D0A389DB0706D50A2E27
:1023000004D12146284600F033F988B93846F8BD93
:102310000A4B9C4201D1AC68CFE7094B9C4208BFF5
:10232000EC68CAE72146284600F01EF80028CBD00A
:102330004FF0FF37EAE700BF0C2900082C290008FE
:10234000EC28000838B5074D04460846114600221F
:102350002A601A4600F082FA431C02D12B6803B1AE
:10236000236038BD14010020324B70B51D6806464D
:102370000C4625B1AB6913B92846FFF755FB2E4B28
:102380009C420FD16C68A389B4F90C2019072CD496
:10239000DD0611D40923336042F04003A3814FF0DE
:1023A000FF303EE0254B9C4201D1AC68EBE7244B6B
:1023B0009C4208BFEC68E6E7580712D5616B41B153
:1023C00004F14403994202D0304600F091F9002311
:1023D0006363A38923F02403A3810023636023693B
:1023E0002360A38943F00803A38123694BB9A38920
:1023F00003F42073B3F5007F03D02146304600F08C
:102400002BF9A089B4F90C2010F001030AD00023A5
:10241000A36063695B42A361236943B910F0800044
:10242000BAD170BD810758BF6369A360F4E700208B
:10243000F7E700BF0C0000200C2900082C29000839
:10244000EC28000838B5064D0023044608462B60EA
:1024500000F0CEF9431C02D12B6803B1236038BDD4
:10246000140100208A892DE9F041054610070C4629
:1024700058D44B68002B05DC0B6C002B02DC0020D1
:10248000BDE8F081E66A002EF9D0002312F48052F4
:102490002F682B6032D0606DA3895A0705D5636819
:1024A000C01A636B0BB1236CC01A00230246E66AA4
:1024B000216A2846B047431CA38906D129681D29F3
:1024C0002CD82A4ACA40D60728D500226260D904EF
:1024D0002269226004D5421C01D12B6803B96065D2
:1024E000616B2F600029CAD004F14403994202D0E5
:1024F000284600F0FDF800206063C1E7216A01234F
:102500002846B047411CC7D12B68002BC4D01D2BD7
:1025100001D0162B01D12F60B1E7A38943F040030E
:10252000A381ADE70F69002FA9D093070E6808BFFC
:102530004B690F6018BF0023A6EB07088B60B8F14A
:10254000000F9CDD216AA66A43463A462846B047FA
:10255000002806DCA38943F04003A3814FF0FF303D
:102560008EE70744A8EB0008E9E700BF0100402020
:1025700038B50B6905460C4613B90025284638BD09
:1025800018B183690BB9FFF74FFA144B9C421BD16A
:102590006C68B4F90C30002BEFD0626ED00704D415
:1025A000990502D4A06DFFF7DDFA28462146FFF712
:1025B00059FF636EDA070546E0D4A3899B05DDD495
:1025C000A06DFFF7D0FAD9E7054B9C4201D1AC686A
:1025D000DFE7044B9C4208BFEC68DAE70C290008EF
:1025E0002C290008EC28000838B5074D0446084699
:1025F000114600222A601A4600F012F9431C02D14B
:102600002B6803B1236038BD1401002070B50E465D
:10261000B1F90E10002996B014461D4608DAB6F935
:102620000C3000222A601A0610D44FF480630EE0AA
:102630006A4600F0BBF80028F1DB019A02F4704210
:10264000A2F500535A425A412A60EEE74023002087
:10265000236016B070BD00008B8973B59D070646D8
:102660000C4607D504F1470323602361012363610E
:1026700002B070BD01AB6A46FFF7C8FF009905467E
:102680003046FFF771FA48B9B4F90C309A05EFD427
:1026900023F0030343F00203A381E3E70D4BB3628E
:1026A000A389206043F08003A381009B6361019BA9
:1026B00020615BB1B4F90E10304600F089F828B102
:1026C000A38923F0030343F00103A381A0890543F9
:1026D000A581CDE7C11900080148FFF743BA00BF43
:1026E000080100200148FFF73EBA00BF08010020A2
:1026F00037B5002944D051F8043C0190002BA1F1DA
:102700000404B8BFE418FFF7E7FF1E4A01981368F6
:1027100033B96360146003B0BDE83040FFF7E2BF37
:10272000A34208D9256861198B4201BF19685B680B
:1027300049192160EDE71A465B680BB1A342FAD94B
:1027400011685518A5420BD1246821445418A3429E
:102750001160E0D11C685B68536021441160DAE7C6
:1027600002D90C230360D6E7256861198B4204BFA8
:1027700019685B68636004BF491921605460CAE747
:1027800003B030BD0C01002038B5074D04460846A3
:10279000114600222A601A4600F04AF8431C02D172
:1027A0002B6803B1236038BD1401002038B5074DF4
:1027B00000230446084611462B6000F021F8431C14
:1027C00002D12B6803B1236038BD00BF1401002083
:1027D00038B5064D0023044608462B6000F018F873
:1027E000431C02D12B6803B1236038BD14010020C3
:1027F000024B58221A604FF0FF307047140100203E
:10280000024B58221A604FF0FF307047140100202D
:10281000024B58221A600020704700BF14010020AC
:10282000024B58221A604FF0FF307047140100200D
:10283000024B58221A604FF0FF30704714010020FD
:10284000044A05491368002B08BF0B461844106062
:10285000184670471801002020010020024B582222
:102860001A604FF0FF30704714010020F8B500BF28
:10287000F8BC08BC9E467047F8B500BFF8BC08BC61
:042880009E467047B9
:1028840048656C6C6F20576F726C64210000000007
:102894000000000000000000000000000000000034
:1028A4000000000000000000000000000000000024
:1028B40000000000417474656D7074696E67207463
:1028C4006F207072696E742068656C6C6F20776F0E
:1028D400726C6400000000000000000001020304A8
:1028E4000607080910000020000000000000000096
:1028F40000000000000000000000000000000000D4
:1029040000000000000000000000000000000000C3
:1029140000000000000000000000000000000000B3
:1029240000000000000000000000000000000000A3
:102934000000000000000000000000000000000093
:102944000000000000000000232D302B2000686CE4
:102954004C006566674546470030313233343536BE
:1029640037383941424344454600303132333435F7
:0C29740036373839616263646566000024
:0829800040D9FF7F01000000B7
:04298800C50100087D
:04298C00A10100089D
:1029900001000000100000000024F40010000020DE
:1029A000000000000C2900082C290008EC28000871
:1029B0000000000000000000000000000000000017
:1029C0000000000000000000000000000000000007
:1029D00000000000000000000000000000000000F7
:1029E00000000000000000000000000000000000E7
:1029F00000000000000000000000000000000000D7
:040000050800189D3A
:00000001FF
